S00E00006D61737465722E737265638A
S11300000C942A000C9447000C94C7070C944700E6
S11300100C9447000C9447000C9447000C94470040
S11300200C9447000C9447000C9447000C943A0835
S11300300C9447000C9447000C9447000C94470020
S11300400C9447000C9447000C9447000C94470010
S11300500C94470011241FBECFE5D8E0DEBFCDBF0E
S113006011E0A0E6B0E0E6E7F1E102C005900D92F0
S1130070AA3AB107D9F721E0AAEAB1E001C01D927A
S1130080AE3BB207E1F70E9484050C94B9080C94C6
S11300900000411138C0813091F028F08230D9F04D
S11300A0833029F108952AB381E090E002C0880FDB
S11300B0991F6A95E2F7809582238ABB089527B336
S11300C081E090E002C0880F991F6A95E2F780955D
S11300D0822387BB089524B381E090E002C0880F97
S11300E0991F6A95E2F78095822384BB089521B312
S11300F081E090E002C0880F991F6A95E2F780952D
S1130100822381BB0895413099F5813089F028F02C
S11301108230C9F0833011F108952AB381E090E070
S113012002C0880F991F6A95E2F7822B8ABB089553
S113013027B381E090E002C0880F991F6A95E2F727
S1130140822B87BB089524B381E090E002C0880F1E
S1130150991F6A95E2F7822B84BB089521B381E04D
S113016090E002C0880F991F6A95E2F7822B81BB49
S11301700895813041F028F0823039F0833039F02D
S113018008956ABB089567BB089564BB089561BB75
S11301900895411138C0813091F028F08230D9F0AF
S11301A0833029F108952BB381E090E002C0880FD9
S11301B0991F6A95E2F7809582238BBB089528B333
S11301C081E090E002C0880F991F6A95E2F780955C
S11301D0822388BB089525B381E090E002C0880F94
S11301E0991F6A95E2F78095822385BB089522B30F
S11301F081E090E002C0880F991F6A95E2F780952C
S1130200822382BB0895413099F5813089F028F02A
S11302108230C9F0833011F108952BB381E090E06E
S113022002C0880F991F6A95E2F7822B8BBB089551
S113023028B381E090E002C0880F991F6A95E2F725
S1130240822B88BB089525B381E090E002C0880F1B
S1130250991F6A95E2F7822B85BB089522B381E04A
S113026090E002C0880F991F6A95E2F7822B82BB47
S11302700895813041F028F0823039F0833039F02C
S113028008956BBB089568BB089565BB089562BB70
S113029008959F92AF92BF92CF92DF92EF92FF9216
S11302A00F931F93CF93DF93912CA12C00E110E0C7
S11302B0BB24B394C12CC92DDA2DDC2E78010C2E6D
S11302C002C0EE0CFF1C0A94E2F76E2D80E00E943F
S11302D0B9006E2D609580E00E943901C89B0EC064
S11302E04B2D5C2D942F29B330E0042E02C035959C
S11302F027950A94E2F720FD15C001C090E0D3943D
S1130300892F880F980F8D2D890F8B3029F08C3011
S113031029F08A3089F404C080E00EC083E20CC066
S11303208AE20AC04F5F5F4F44305105D9F62196E7
S1130330C330D10511F6BFCFDF91CF911F910F913B
S1130340FF90EF90DF90CF90BF90AF909F90089573
S1130350CF93C82F40E062E081E00E94C90040E0F2
S113036061E081E00E94C90041E063E081E00E9415
S1130370C9006C2F607F82E00E94390140E063E095
S113038081E00E94C9008FEC97E00197F1F700C06B
S1130390000041E063E081E00E94C9008FEC97E037
S11303A00197F1F700C000006C2F6295607F82E036
S11303B00E94390140E063E081E00E94C9008FECB3
S11303C097E00197F1F700C0000041E063E081E0AD
S11303D00E94C9008FEC97E00197F1F700C000007C
S11303E0CF91089541E062E081E00E94490041E03C
S11303F063E081E00E94490041E061E081E00E9405
S1130400490060EF82E00E94B9002FE788E391E0A1
S1130410215080409040E1F700C0000082E00E943B
S1130420A8018FEC97E00197F1F700C0000088E283
S11304300E94A8018FEC97E00197F1F700C000003B
S11304408CE00E94A8018FEC97E00197F1F700C0BF
S1130450000081E00E94A8018FE39CE90197F1F775
S113046000C0000086E00E94A80180E80E94A80164
S11304708FE99FE00197F1F700C000000895CF9342
S1130480C82F41E062E081E00E94C90040E061E0E1
S113049081E00E94C90041E063E081E00E94C9005C
S11304A06C2F607F82E00E94390140E063E081E0CC
S11304B00E94C9008FE99FE00197F1F700C0000096
S11304C041E063E081E00E94C9008FE99FE0019769
S11304D0F1F700C000006C2F6295607F82E00E94FB
S11304E0390140E063E081E00E94C9008FE99FE0A8
S11304F00197F1F700C0000041E063E081E00E9451
S1130500C9008FE99FE00197F1F700C00000CF9187
S113051008950F931F93CF93FC018081882389F062
S11305208F01C0E00E943F028FE99FE00197F1F73D
S113053000C00000CF5FF801EC0FF11D8081811134
S1130540F1CFCF911F910F910895813031F060F078
S1130550823029F0833029F006C0605C05C06C5EEF
S113056003C06C5A01C060E0862F80680E94A80115
S11305700895EF92FF921F93CF93DF93CDB7DEB729
S11305802A970FB6F894DEBF0FBECDBFFC01892BAE
S113059021F480E30E943F023DC010E0EE24E39486
S11305A0F12CEC0EFD1EE10EF11C9F01ADECBCEC38
S11305B00E949508AC0156954795569547955695D2
S11305C04795CA01880F991F440F551F440F551FA3
S11305D0440F551F480F591FCF01841B950B805D95
S11305E0D7018C93ADECBCEC0E949508FC01F69508
S11305F0E795F695E795F695E7951F5F309771F6C1
S1130600112341F0FE01E10FF11D80810E943F02A0
S11306101150C1F72A960FB6F894DEBF0FBECDBFB6
S1130620DF91CF911F91FF90EF90089581E00E9498
S1130630A80182E00E94A8010895CF93DF930E944D
S1130640160380E690E00E94890260E081E00E9447
S1130650A5028BE690E00E9489020E944901813044
S113066069F58BE00E947E070E94160389E790E0FB
S11306700E94890262E081E00E94A50287E890E07E
S11306800E9489022FEF82E597E02150804090403C
S1130690E1F700C000000E94160381E990E00E9487
S11306A08902C0EDD7E00E94B2078FEC97E0019772
S11306B0F1F700C000002197B1F714C00E9449016E
S11306C0823081F00E9416038CE990E00E94890236
S11306D09FEF22E587E0915020408040E1F700C081
S11306E00000ADCFDF91CF910895CF93DF930E94A7
S11306F0160385EA90E00E94890260E081E00E948E
S1130700A5028BE690E00E9489020E944901813093
S113071009F059C00E94160383EB90E00E948902FD
S11307200E944901C82F8332D9F38A32C9F360E0A9
S113073081E00E94A5028C2F90E00E94B9022FEF65
S113074082E597E0215080409040E1F700C000002E
S11307500E944901D82F8332D9F38A32C9F361E068
S113076081E00E94A5028D2F90E00E94B9022FEF34
S113077082E597E0215080409040E1F700C00000FE
S11307808DE00E947E07CC0F8C2F880F880FC80F36
S1130790DC0F8CEE8D0F893190F00E9416038FEBE5
S11307A090E00E9489022FEF82E597E0215080407B
S11307B09040E1F700C000000E941603ABCF8D2FDC
S11307C00E947E0726C00E944901823081F00E9467
S11307D016038CE990E00E9489022FEF82E597E0EE
S11307E0215080409040E1F700C0000080CF0E947B
S11307F0160389E00E947E078CEC90E00E94890237
S11308002FEF82E597E0215080409040E1F700C04F
S11308100000DF91CF9108950E9416038FEC90E0C1
S11308200E94890260E081E00E94A50284ED90E0CC
S11308300E9489020E944901813019F40E947503C3
S113084008950E944901823081F00E9416038CE9C8
S113085090E00E9489022FEF82E597E021508040CA
S11308609040E1F700C00000D7CF0E9416038AE051
S11308700E947E0782EE90E00E9489022FEF82E5BB
S113088097E0215080409040E1F700C000000895B7
S1130890EF92FF920F931F93CF93DF937B01EA01B3
S11308A0122F0E941603C7010E94890286EE90E06F
S11308B00E94890262E081E00E94A502CE010E94AA
S11308C089028CEE90E00E9489020E9449018130E5
S11308D099F40E941603812F0E947E078CEC90E00D
S11308E00E9489022FEF82E597E0215080409040DA
S11308F0E1F700C0000026C00E944901823099F44B
S11309000E941603802F0E947E0782EE90E00E94D0
S113091089022FEF82E597E0215080409040E1F773
S113092000C000000FC00E94160387EF90E00E94F1
S113093089022FEF82E597E0215080409040E1F753
S113094000C00000DF91CF911F910F91FF90EF90B5
S11309500895CF92DF92EF92FF920F931F93CF935C
S1130960DF93C82F7B01142FD22FC82ED12C0E94C5
S11309701603C7010E94890286EE90E00E94890254
S113098062E081E00E94A5028DEF90E00E9489025E
S1130990C6010E94B902C33049F484E091E00E9488
S11309A089020E944901833029F51BC08CE091E043
S11309B00E9489020E9449018C131CC0C13089F431
S11309C00D2F212F44E151E0B70181E00E9448043A
S11309D004E023E048E151E0B70181E00E944804CB
S11309E0C6CF0D2F212F44E151E0B7018C2F0E9477
S11309F04804BDCF0E944901882381F00E94160358
S1130A008CE990E00E9489022FEF82E597E0215063
S1130A1080409040E1F700C00000A9CFDF91CF9162
S1130A201F910F91FF90EF90DF90CF9008950E9457
S1130A3016038BE191E00E94890260E081E00E944C
S1130A40A5028BE690E00E9489020E944901813050
S1130A50D1F40E9416030E940C0422E041E06AE2F1
S1130A6071E081E00E94A90426E045E061E371E0C1
S1130A7082E00E94A90428E047E065E371E083E096
S1130A800E94A904D4CF0E944901823081F00E94BF
S1130A9016038CE990E00E9489022FEF82E597E02B
S1130AA0215080409040E1F700C00000C0CF08957D
S1130AB00E9416038AE391E00E94890260E081E0CB
S1130AC00E94A50285E491E00E9489020E944901E6
S1130AD0813019F40E941D03EBCF0E94490182303A
S1130AE019F40E941705E4CF0E9416038CE990E0E4
S1130AF00E9489022FEF82E597E0215080409040C8
S1130B00E1F700C00000D4CFCF93DF93CDB7DEB7B9
S1130B102A970FB6F894DEBF0FBECDBF80E00E94C7
S1130B2057070E94F20140E060E081E00E94490022
S1130B3041E067E083E00E9449000E949E078FB76E
S1130B4080688FBFB09B0BC000E010E06FEFC8015E
S1130B500E94AC080F5F1F4F05301105B9F780E004
S1130B6090E00E94A4088F3F09F09BC181E090E0CF
S1130B700E94A4088F3F09F094C182E090E00E9493
S1130B80A4088F3F09F08DC183E090E00E94A4087F
S1130B908F3F09F086C184E090E00E94A4088F3F53
S1130BA009F07FC180E591E00E94890262E081E062
S1130BB00E94A50286E891E00E94890200E010E00C
S1130BC0E12C4BC0E3940E94160329E02F15C8F0D2
S1130BD06F2DC8010E94AC088F2D90E00E94B902CD
S1130BE08FEF94E3ECE081509040E040E1F700C0E7
S1130BF000006D2D80E00E94A5028AE20E943F025F
S1130C0021C06F2DC8010E94AC08F3E2FF1204C09A
S1130C1083E20E943F0206C02AE2F21203C08AE283
S1130C200E943F028FEF94E3ECE081509040E0405B
S1130C30E1F700C000006D2D80E00E94A5028AE269
S1130C400E943F02FFEF20E782E0F1502040804005
S1130C50E1F700C000000F5F1F4FD02E05301105D3
S1130C6009F018C10E94160382E691E00E948902ED
S1130C709FE7EAE1F6E09150E040F040E1F700C080
S1130C800000CE0101967C0100E010E0C8010E9442
S1130C90A408F70181937F010F5F1F4F05301105F1
S1130CA0A9F7FFE72AE186E0F15020408040E1F710
S1130CB000C000000E9416038EE691E00E948902A3
S1130CC09FEFE4E3FCE09150E040F040E1F700C026
S1130CD000000E941603E5C0C8010E94A408F701A1
S1130CE081937F010F5F1F4F05301105A9F784E73A
S1130CF091E00E94890262E081E00E94A50286E8F8
S1130D0091E00E948902D12CF12C10E0E12CBBC0AF
S1130D10F1E0FF1619F0F3940E9416030A30E8F488
S1130D20E6E0F0E0EC0FFD1FE10FF11D0083802FE2
S1130D3090E00E94B9022FE788E391E021508040BF
S1130D409040E1F700C00000612F8E2D0E94A502A3
S1130D508AE20E943F021F5F23C0E6E0F0E0EC0F4E
S1130D60FD1FE10FF11D0083033221F483E20E9491
S1130D703F0205C00A3219F48AE20E943F02EFE7FB
S1130D80F8E321E0E150F0402040E1F700C000002A
S1130D90612F8E2D0E94A5028AE20E943F021F5FEE
S1130DA08FEF90E7E2E081509040E040E1F700C02F
S1130DB00000153009F067C00E94160382E691E036
S1130DC00E948902FFEF24E38CE0F1502040804030
S1130DD0E1F700C000000E94160399818E819813E8
S1130DE014C09A818F81981310C09B8188859813B1
S1130DF00CC09C818985981308C09D818A859813AD
S1130E0004C00E9416030E94580581E891E00E94E4
S1130E1089029FEFE2E5F7E09150E040F040E1F70E
S1130E2000C000000E941603D39423E0D21213C022
S1130E308CE00E947E0780E991E00E9489028FEF96
S1130E409BE7E2E981509040E040E1F700C00000F8
S1130E500E941603DE2C8BE991E00E94890262E075
S1130E6081E00E94A50286E891E00E948902FFEFDA
S1130E7029E688E1F15020408040E1F700C00000FD
S1130E800E9416031E2D0E944901082F153009F0F7
S1130E903FCF92CF0E944901F82E91E0E91292CE01
S1130EA094CEFE0131967F0100E010E015CFCF9380
S1130EB0C82F40E066E081E00E94490041E065E01F
S1130EC081E00E94490041E067E081E00E9449001E
S1130ED041E064E081E00E94490041E064E081E097
S1130EE00E94C900CC2321F083E58DB91EB804C04B
S1130EF080E58DB981E08EB9CF910895CF93C82F45
S1130F0040E064E081E00E94C900CFB9779BFECF46
S1130F1041E064E081E00E94C900CF91089513BECE
S1130F2081E083BF12BE89B7816089BF089585B708
S1130F30846085BF8BB780688BBF089541E060E013
S1130F4083E00E94490040E063E083E00E9449009E
S1130F5041E063E083E00E94C9000E9497070E9479
S1130F608F0708958091AF01811110C041E060E0C6
S1130F7083E00E94C90085E08A95F1F740E060E0D3
S1130F8083E00E94C90081E08093AF0108951F921D
S1130F900F920FB60F9211242F933F934F935F93A9
S1130FA06F937F938F939F93AF93BF93EF93FF932D
S1130FB08091AF01813009F04CC08091AE01811164
S1130FC00DC012BE81E08093AE011092AA0110926E
S1130FD0AB011092AC011092AD013BC022B78091DD
S1130FE0AA019091AB01A091AC01B091AD01BA2FCF
S1130FF0A92F982F8827BC01CD01620F711D811D77
S1131000911D22ED31E040E050E00E9473082093EE
S1131010B0013093B1014093B2015093B301203930
S113102031404105510528F441E067E083E00E9426
S1131030C9008FE097E20197F1F700C00000109219
S1131040AA011092AB011092AC011092AD01109262
S1131050AE01FF91EF91BF91AF919F918F917F91DD
S11310606F915F914F913F912F910F900FBE0F9011
S11310701F9018951F920F920FB60F9211242F9361
S11310808F939F93AF93BF938091AA019091AB01EB
S1131090A091AC01B091AD010196A11DB11D809349
S11310A0AA019093AB01A093AC01B093AD018B3D29
S11310B09240A105B10568F012BE1092AF011092E2
S11310C0AE011092AA011092AB011092AC011092E1
S11310D0AD01BF91AF919F918F912F910F900FBE52
S11310E00F901F901895A1E21A2EAA1BBB1BFD019D
S11310F00DC0AA1FBB1FEE1FFF1FA217B307E407F3
S1131100F50720F0A21BB30BE40BF50B661F771F4A
S1131110881F991F1A9469F760957095809590952A
S11311209B01AC01BD01CF010895A29FB001B39F03
S1131130C001A39F700D811D1124911DB29F700DDC
S1131140811D1124911D0895E199FECF9FBB8EBB93
S1131150E09A99278DB30895262FE199FECF9FBB7E
S11311608EBB2DBB0FB6F894E29AE19A0FBE01969E
S10911700895F894FFCF7E
S11311766F70656E20646F6F723F00202020796562
S113118673312020206E6F32002074686520646FEE
S11311966F722069732000206F70656E696E672018
S11311A6002057656C636F6D6521200077726F6E42
S11311B667206E6F007365742041432074656D70FB
S11311C6203F00656E7465722074656D703A00691F
S11311D66E76616C69642074656D70006F6E0020B4
S11311E6204143002020206F6E312020206F666648
S11311F632006F66660020726F6F6D003A206F6E64
S113120631206F6666320077726F6E6700707265A2
S113121673732000202071756974300020206E6578
S1131226787430006C65640054560073686F7720D8
S113123673657474696E67733F006C6976696E676B
S113124600626564006B69647300446F6F722020EA
S1131256202020310073657474696E677320320030
S1131266656E74657220796F75722066697273741F
S11312762000706C65617365207761697400736121
S1131286766564002020656E74657220796F7572C8
S11312960077726F6E672070617373776F72640084
S11312A677616974203620736563002020656E7447
S10D12B6657220796F757220000044
S9030000FC
