S00D0000736C6176652E73726563FC
S11300000C9446000C9463000C9463000C946300FD
S11300100C94FF050C94D6050C94AD050C945B056B
S11300200C9484050C9432050C94EA030C94C103DB
S11300300C94ED020C9463000C9463000C94630024
S11300400C9463000C9463000C9463000C946300A0
S11300500C94630086028B02900295029A029F021E
S1130060A402A902AE02B502BE02D002E6021D0439
S11300702A043704440451045E046B0478048504A0
S113008092049F04AC04B904C604D30411241FBE13
S1130090CFE5D8E0DEBFCDBF10E0A0E6B0E0E8E9F0
S11300A0FFE002C005900D92A236B107D9F720E017
S11300B0A2E6B0E001C01D92A737B207E1F70E94A3
S11300C04C020C94CA070C940000379A369A35985F
S11300D0349A3398329831983098811106C0389800
S11300E039983A983B983C9810C0813031F4389A4A
S11300F039983A983B983C9810C0823031F438983B
S1130100399A3A983B983C9810C0833031F4389A25
S1130110399A3A983B983C9810C0843031F4389816
S113012039983A9A3B983C9810C0853031F4389A03
S113013039983A9A3B983C980FC0863031F43898F5
S1130140399A3A9A3B983C9807C0873029F4389AF0
S1130150399A3A9A3B983C983D983E9A3F9808952C
S1130160369A349BFECF84B125B1349A90E0922B19
S11301700895CF93C82F0E9465008C2F0E94B00071
S113018096958795CF910895CF93C82F0E946500C7
S11301908C2F0E94B00021E08F3F934009F020E0B3
S11301A0822FCF9108951ABA17BA8FE384BB81E1E5
S11301B081BB1BBA18BA15BA12BA0895411138C0D6
S11301C0813091F028F08230D9F0833029F10895FC
S11301D02AB381E090E002C0880F991F6A95E2F784
S11301E0809582238ABB089527B381E090E002C002
S11301F0880F991F6A95E2F78095822387BB08953B
S113020024B381E090E002C0880F991F6A95E2F759
S11302108095822384BB089521B381E090E002C0DD
S1130220880F991F6A95E2F78095822381BB089510
S1130230413099F5813089F028F08230C9F083305B
S113024011F108952AB381E090E002C0880F991F4C
S11302506A95E2F7822B8ABB089527B381E090E088
S113026002C0880F991F6A95E2F7822B87BB089515
S113027024B381E090E002C0880F991F6A95E2F7E9
S1130280822B84BB089521B381E090E002C0880FE3
S1130290991F6A95E2F7822B81BB0895411138C0FA
S11302A0813091F028F08230D9F0833029F108951B
S11302B02BB381E090E002C0880F991F6A95E2F7A2
S11302C0809582238BBB089528B381E090E002C01F
S11302D0880F991F6A95E2F78095822388BB089559
S11302E025B381E090E002C0880F991F6A95E2F778
S11302F08095822385BB089522B381E090E002C0FB
S1130300880F991F6A95E2F78095822382BB08952E
S1130310413099F5813089F028F08230C9F083307A
S113032011F108952BB381E090E002C0880F991F6A
S11303306A95E2F7822B8BBB089528B381E090E0A5
S113034002C0880F991F6A95E2F7822B88BB089533
S113035025B381E090E002C0880F991F6A95E2F707
S1130360822B85BB089522B381E090E002C0880F00
S1130370991F6A95E2F7822B82BB089541E00E949F
S11303804E01089540E00E944E0108958091660058
S11303908F5F80936600809166008A3008F47BC08A
S11303A080E00E94B90090936A008093690081E024
S11303B00E94C40090E0909368008093670080914D
S11303C06700909168000197B9F441E060E083E030
S11303D00E944E012FEF89E698E121508040904021
S11303E0E1F700C0000040E060E083E00E944E01BD
S11303F0109268001092670080916B0090916C00DD
S11304002091690030916A0001962817390760F03D
S113041080916400813041F460E082E00E94BE017A
S113042081E080936500089580916B0090916C0049
S11304302091690030916A0001978217930758F060
S113044080916300811107C060E082E00E94C201D4
S11304501092650008952091690030916A0080919E
S11304606B0090916C0028173907A9F480916400FF
S1130470813089F480916500813029F460E082E064
S11304800E94BE01089580916500811104C060E05E
S113049082E00E94C20108950E94D30080E00E947D
S11304A0650081E00E94650080E090E00E943C03CA
S11304B00E941303789440E065E082E00E946503A3
S11304C08EE48CBF86EC91E00E94BC030E94B803CA
S11304D0C1E0DFEF80916200813059F480916000C7
S11304E08D3039F08091600090E090936C0080939F
S11304F06B00E09160008E2F90E0FC013197ED30AD
S1130500F10540F7E65DFF4F0C94C4076C2F82E0C1
S11305100E94BE01DFCF6C2F82E00E94C201DACFBD
S113052062E082E00E94BE01D5CF62E082E00E94D8
S1130530C201D0CF63E082E00E94BE01CBCF63E072
S113054082E00E94C201C6CF64E082E00E94BE0144
S1130550C1CF64E082E00E94C201BCCF60E082E0CF
S11305600E94BE01C0936300B5CF10926400109244
S1130570630060E082E00E94C201ACCF8AE50E9481
S113058022032FEF89E698E1215080409040E1F763
S113059000C0000080E00E942203D09360009ACF44
S11305A04C2F60E083E00E944E012FEF89E698E132
S11305B0215080409040E1F700C0000040E060E03E
S11305C083E00E944E01D093600084CF10926300B8
S11305D0C0936200C09364007DCF1F920F920FB648
S11305E00F9211242F933F934F935F936F937F93B5
S11305F08F939F93AF93BF93EF93FF930E946303F3
S113060080936000FF91EF91BF91AF919F918F9183
S11306107F916F915F914F913F912F910F900FBEFA
S11306200F901F90189523E043E063E08DE00E9453
S113063013048FE19EE497BD86BD81E690E099BDE9
S113064088BD089524E6829FC0011124BC0180E086
S113065090E00E94360726E636E644E252E40E9421
S1130660950620E030E042EC52E40E9429060E9404
S1130670070779BD68BD0895CF93C82F41E066E0B0
S113068081E00E94DE0040E065E081E00E94DE003F
S113069040E067E081E00E94DE0040E064E081E049
S11306A00E94DE0041E064E081E00E944E01CC2320
S11306B021F083EC8DB91EB804C080EC8DB981E0C3
S11306C08EB9CF9108958FB108958130A1F028F0AB
S11306D0823051F08330B1F01BC083B78F7B83BF6E
S11306E083B7877F83BF14C083B78F7B83BF83B7F0
S11306F0886083BF0DC083B7806483BF83B7877F5F
S113070083BF06C083B7806483BF83B7886083BF19
S1130710413069F028F0423089F04330B1F01BC019
S113072083B78F7E83BF83B78F7D83BF14C083B7A6
S1130730806183BF83B78F7D83BF0DC083B78F7EF6
S113074083BF83B7806283BF06C083B7806183BFE2
S113075083B7806283BF83B78E7F83BF83B78D7F68
S113076083BF83B78B7F83BF83B7682B63BF089531
S113077089B7826089BF089590937600809375004D
S113078008951F920F920FB60F9211242F933F9347
S11307904F935F936F937F938F939F93AF93BF9385
S11307A0EF93FF93E0917500F0917600309709F094
S11307B00995FF91EF91BF91AF919F918F917F9197
S11307C06F915F914F913F912F910F900FBE0F90BA
S11307D01F9018951F920F920FB60F9211242F930A
S11307E03F934F935F936F937F938F939F93AF93B5
S11307F0BF93EF93FF93E0917500F09176003097EB
S113080009F00995FF91EF91BF91AF919F918F915D
S11308107F916F915F914F913F912F910F900FBEF8
S11308200F901F90189590E08F30910508F0C7C085
S1130830FC01E95CFF4F0C94C4078FB58E7F8FBD1C
S11308408FB58D7F8FBD8EB5877F8EBD8EB58F7E24
S11308508EBDB5C08FB581608FBD8FB58D7F8FBDC7
S11308608EB5877F8EBD8EB58F7E8EBDA8C08FB5A9
S11308708E7F8FBD8FB582608FBD8EB5877F8EBD15
S11308808EB58F7E8EBD9BC08FB581608FBD8FB5B9
S113089082608FBD8EB5877F8EBD8EB58F7E8EBDF7
S11308A08EC08FB58E7F8FBD8FB58D7F8FBD8EB57A
S11308B088608EBD8EB58F7E8EBD81C08FB5816000
S11308C08FBD8FB58D7F8FBD8EB588608EBD8EB583
S11308D08F7E8EBD74C08FB58E7F8FBD8FB58260C5
S11308E08FBD8EB588608EBD8EB58F7E8EBD67C080
S11308F08FB581608FBD8FB582608FBD8EB58860E6
S11309008EBD8EB58F7E8EBD5AC08FB58E7F8FBD46
S11309108FB58D7F8FBD8EB5877F8EBD8EB580617F
S11309208EBD4DC08FB581608FBD8FB58D7F8FBD5E
S11309308EB5877F8EBD8EB580618EBD40C08FB56C
S11309408E7F8FBD8FB582608FBD8EB5877F8EBD44
S11309508EB580618EBD33C08FB581608FBD8FB57C
S113096082608FBD8EB5877F8EBD8EB580618EBD52
S113097026C08FB58E7F8FBD8FB58D7F8FBD8EB511
S113098088608EBD8EB580618EBD19C08FB58E7F97
S11309908FBD8FB582608FBD8EB588608EBD8EB5DC
S11309A080618EBD0CC08FB581608FBD8FB58260B4
S11309B08FBD8EB588608EBD8EB580618EBD413091
S11309C069F028F04230C1F0433079F01BC08FB594
S11309D08F7B8FBD8FB58F778FBD14C08FB580642B
S11309E08FBD8FB58F778FBD0DC08FB58F7B8FBDBA
S11309F08FB580688FBD06C08FB580648FBD8FB5FD
S1130A0080688FBD213069F028F02230C1F0233096
S1130A1079F01BC08FB58F7E8FBD8FB58F7D8FBD55
S1130A2014C08FB580618FBD8FB58F7D8FBD0DC014
S1130A308FB58F7E8FBD8FB580628FBD06C08FB599
S1130A4080618FBD8FB580628FBD8EB58E7F8EBD68
S1130A508EB58D7F8EBD8EB58B7F8EBD8EB5682B8A
S1130A606EBD08951F920F920FB60F9211242F930B
S1130A703F934F935F936F937F938F939F93AF9322
S1130A80BF93EF93FF93E0917300F091740030975C
S1130A9009F00995FF91EF91BF91AF919F918F91CB
S1130AA07F916F915F914F913F912F910F900FBE66
S1130AB00F901F9018951F920F920FB60F9211244A
S1130AC02F933F934F935F936F937F938F939F9352
S1130AD0AF93BF93EF93FF93E0917100F091720095
S1130AE0309709F00995FF91EF91BF91AF919F91D4
S1130AF08F917F916F915F914F913F912F910F90C3
S1130B000FBE0F901F9018951F920F920FB60F9261
S1130B1011242F933F934F935F936F937F938F93FE
S1130B209F93AF93BF93EF93FF93E0917100F09184
S1130B307200309709F00995FF91EF91BF91AF9141
S1130B409F918F917F916F915F914F913F912F91E1
S1130B500F900FBE0F901F9018951F920F920FB613
S1130B600F9211242F933F934F935F936F937F932F
S1130B708F939F93AF93BF93EF93FF93E0916F0095
S1130B80F0917000309709F00995FF91EF91BF91B2
S1130B90AF919F918F917F916F915F914F913F9111
S1130BA02F910F900FBE0F901F9018951F920F92C8
S1130BB00FB60F9211242F933F934F935F936F932C
S1130BC07F938F939F93AF93BF93EF93FF93E091A2
S1130BD06D00F0916E00309709F00995FF91EF9147
S1130BE0BF91AF919F918F917F916F915F914F9141
S1130BF03F912F910F900FBE0F901F9018951F9249
S1130C000F920FB60F9211242F933F934F935F933C
S1130C106F937F938F939F93AF93BF93EF93FF93C0
S1130C20E0916D00F0916E00309709F00995FF9105
S1130C30EF91BF91AF919F918F917F916F915F9150
S1130C404F913F912F910F900FBE0F901F901895C9
S1130C505058BB27AA270E9440060C948A070E947A
S1130C607C0738F00E94830720F039F49F3F19F481
S1130C7026F40C9479070EF4E095E7FB0C947307C3
S1130C80E92F0E949B0758F3BA176207730784077A
S1130C90950720F079F4A6F50C94BD070EF4E095C1
S1130CA00B2EBA2FA02D0B01B90190010C01CA0122
S1130CB0A0011124FF27591B99F0593F50F4503ECD
S1130CC068F11A16F040A22F232F342F4427585FBF
S1130CD0F3CF469537952795A795F0405395C9F7D7
S1130CE07EF41F16BA0B620B730B840BBAF091508F
S1130CF0A1F0FF0FBB1F661F771F881FC2F70EC02E
S1130D00BA0F621F731F841F48F487957795679500
S1130D10B795F7959E3F08F0B0CF9395880F08F0EC
S1130D209927EE0F9795879508950E94A9060C942C
S1130D308A070E94830758F00E947C0740F029F438
S1130D405F3F29F00C94730751110C94BE070C9467
S1130D5079070E949B0768F39923B1F3552391F314
S1130D60951B550BBB27AA2762177307840738F016
S1130D709F5F5F4F220F331F441FAA1FA9F335D073
S1130D800E2E3AF0E0E832D091505040E695001C27
S1130D90CAF72BD0FE2F29D0660F771F881FBB1FE1
S1130DA0261737074807AB07B0E809F0BB0B802DBF
S1130DB0BF01FF2793585F4F3AF09E3F510578F0EB
S1130DC00C9473070C94BE075F3FE4F3983ED4F38E
S1130DD0869577956795B795F7959F5FC9F7880FBF
S1130DE0911D9695879597F90895E1E0660F771F11
S1130DF0881FBB1F621773078407BA0720F0621BA2
S1130E00730B840BBA0BEE1F88F7E09508950E94CC
S1130E10A30788F09F5798F0B92F9927B751B0F0DE
S1130E20E1F0660F771F881F991F1AF0BA95C9F76A
S1130E3014C0B13091F00E94BD07B1E008950C9444
S1130E40BD07672F782F8827B85F39F0B93FCCF3F7
S1130E50869577956795B395D9F73EF490958095E7
S1130E60709561957F4F8F4F9F4F0895E89409C007
S1130E7097FB3EF490958095709561957F4F8F4FC9
S1130E809F4F9923A9F0F92F96E9BB279395F695DF
S1130E90879577956795B795F111F8CFFAF4BB0F5D
S1130EA011F460FF1BC06F5F7F4F8F4F9F4F16C0C1
S1130EB0882311F096E911C0772321F09EE8872F4B
S1130EC0762F05C0662371F096E8862F70E060E007
S1130ED02AF09A95660F771F881FDAF7880F969580
S1130EE0879597F9089597F99F6780E870E060E027
S1130EF008959FEF80EC089500240A9416161706AF
S1130F0018060906089500240A94121613061406F6
S1130F1005060895092E0394000C11F4882352F059
S1130F20BB0F40F4BF2B11F460FF04C06F5F7F4F11
S1130F308F4F9F4F089557FD9058440F551F59F0F8
S1130F405F3F71F04795880F97FB991F61F09F3FB2
S1130F5079F087950895121613061406551FF2CFDB
S1130F604695F1DF08C0161617061806991FF1CF2B
S1130F7086957105610508940895E894BB27662752
S1130F807727CB0197F90895EE0FFF1F0590F49191
S10B0F90E02D0994F894FFCF51
S1050F98FF0054
S9030000FC
